:020000040800F2
:1000000060060020B1010008970300088F03000874
:10001000930300086B02000851050008000000006F
:10002000000000000000000000000000BD03000808
:100030006F0200080000000099030008E1040008B6
:10004000CB010008CB010008CB010008CB01000860
:10005000CB010008CB010008CB010008CB01000850
:10006000CB010008CB010008CB010008CB01000840
:10007000CB010008CB010008CB010008CB01000830
:10008000CB010008CB010008CB010008CB01000820
:10009000CB010008CB010008CB010008CB01000810
:1000A000CB010008CB010008CB010008CB01000800
:1000B000CB010008CB010008CB010008CB010008F0
:1000C000CB010008CB010008CB010008CB010008E0
:1000D000CB010008CB010008CB010008CB010008D0
:1000E000CB010008CB010008CB010008CB010008C0
:1000F000CB010008CB010008CB010008CB010008B0
:10010000CB010008CB010008CB010008CB0100089F
:10011000CB010008CB010008CB010008CB0100088F
:10012000CB010008CB010008CB010008CB0100087F
:1001300000F002F800F02CF80AA090E8000C8244CD
:100140008344AAF10107DA4501D100F021F8AFF2AA
:10015000090EBAE80F0013F0010F18BFFB1A43F0A5
:100160000103184798040000A8040000002300249D
:1001700000250026103A28BF78C1FBD8520728BFB7
:1001800030C148BF0B6070471FB51FBD10B510BD13
:1001900000F031F81146FFF7F7FF00F0E1F900F049
:1001A0004FF803B4FFF7F2FF03BC00F057F800006C
:1001B0000948804709480047FEE7FEE7FEE7FEE7FB
:1001C000FEE7FEE7FEE7FEE7FEE7FEE70448054937
:1001D000054A064B70470000E5040008310100089D
:1001E0006000002060060020600200206002002005
:1001F000704770477047754600F02CF8AE46050012
:100200006946534620F00700854618B020B5FFF731
:10021000DDFFBDE820404FF000064FF000074FF033
:1002200000084FF0000B21F00701AC46ACE8C00914
:10023000ACE8C009ACE8C009ACE8C0098D4670471D
:1002400010B50446AFF300802046BDE81040FFF72C
:10025000A8BF000000487047000000200149182096
:10026000ABBEFEE726000200704700BFFEE7704706
:100270002DE9F0410246002500260020002300243D
:10028000002791F803C00CF00F0591F803C00CF0A3
:10029000100CBCF1000F03D091F802C04CEA050528
:1002A00091F800C0BCF1000F31D0146800202BE0A1
:1002B0004FF0010C0CFA00F3B1F800C00CEA030691
:1002C0009E4220D183004FF00F0C0CFA03F7BC4381
:1002D00005FA03FC4CEA040491F803C0BCF1280FB2
:1002E00006D14FF0010C0CFA00FCC2F814C00AE071
:1002F00091F803C0BCF1480F05D14FF0010C0CFA86
:1003000000FCC2F810C0401C0828D1D31460B1F81A
:1003100000C0BCF1FF0F34DD546800202EE000F176
:10032000080C4FF0010808FA0CF3B1F800C00CEA11
:1003300003069E4221D183004FF00F0C0CFA03F705
:10034000BC4305FA03FC4CEA040491F803C0BCF179
:10035000280F05D100F1080C08FA0CF8C2F8148037
:1003600091F803C0BCF1480F07D100F1080C4FF021
:10037000010808FA0CF8C2F81080401C0828CED3F7
:100380005460BDE8F081416170470161704700BF72
:10039000FEE700BFFEE770477047000029B1064A3C
:1003A00092690243044B9A6104E0034A92698243D2
:1003B000014B9A617047000000100240704710B571
:1003C00000F002F810BD00000CB500200190009074
:1003D0003F48006840F480303D49086000BF3C4819
:1003E000006800F4003000900198401C01900098D3
:1003F00018B90198B0F5A06FF1D13548006800F444
:10040000003010B10120009001E000200090009821
:1004100001285CD12F48006840F010002D49086089
:100420000846006820F0030008600846006840F0B5
:100430000200086026484068254948600846406830
:1004400048600846406840F4806048600846C06ADA
:10045000214908401E49C8620846C06A1F4908432E
:100460001B49C8620846006840F08060086000BF11
:100470001748006800F000600028F9D01448406870
:1004800020F47C10124948600846406840F4E810A7
:1004900048600846006840F08070086000BF0C4863
:1004A000006800F000700028F9D00948406820F08A
:1004B0000300074948600846406840F00200486071
:1004C00000BF0348406800F00C000828F9D10CBDBB
:1004D000001002400020024000F0FEFF4406010030
:1004E0007047000010B51648006840F0010014493C
:1004F00008600846406813490840114948600846AA
:100500000068114908400E4908600846006820F458
:10051000802008600846406820F4FE0048600846D5
:10052000006820F0A05008604FF47F008860002031
:10053000C862FFF744FF4FF000600449086010BD37
:10054000001002400000FFF0FFFFF6FE08ED00E0A3
:1005500000BFFEE700E0401E0028FCD1704700000D
:1005600008B5FFF7BFFF4FF47070ADF80000102022
:100570008DF8030003208DF8020001211020FFF701
:100580000DFF69461C48FFF773FE33E04FF400711E
:100590001948FFF7FAFE4FF6FF70FFF7DBFF4FF445
:1005A00000711548FFF7EFFE40211348FFF7EDFEFD
:1005B0004FF6FF70FFF7CEFF40210F48FFF7E3FE35
:1005C00080210D48FFF7E1FE4FF6FF70FFF7C2FFF5
:1005D00080210948FFF7D7FE4FF480710648FFF7E6
:1005E000D4FE4FF6FF70FFF7B5FF4FF4807102485D
:1005F000FFF7C9FECAE70000001001400C06000822
:0C06000000000020600600006C010008F3
:04000005080001B13D
:00000001FF
