:020000040800F2
:100000007806002029020008A103000899030008CF
:100010009D030008E30200083D0500080000000001
:10002000000000000000000000000000C503000800
:10003000E702000800000000A3030008B504000860
:10004000430200084302000843020008430200087C
:10005000430200084302000843020008430200086C
:10006000430200084302000843020008430200085C
:10007000430200084302000843020008430200084C
:10008000430200084302000843020008430200083C
:10009000430200084302000843020008430200082C
:1000A000430200084302000843020008430200081C
:1000B000430200084302000843020008430200080C
:1000C00043020008430200084302000843020008FC
:1000D00043020008430200084302000843020008EC
:1000E00043020008430200084302000843020008DC
:1000F00043020008430200084302000843020008CC
:1001000043020008430200084302000843020008BB
:1001100043020008430200084302000843020008AB
:10012000430200084302000843020008430200089B
:10013000430200084302000843020008430200088B
:10014000430200084302000843020008430200087B
:10015000430200084302000843020008430200086B
:10016000430200084302000843020008430200085B
:10017000430200084302000843020008430200084B
:10018000430200084302000800F002F800F03CF8C7
:100190000AA090E8000C82448344AAF10107DA45E2
:1001A00001D100F031F8AFF2090EBAE80F0013F0F8
:1001B000010F18BFFB1A43F0010318477C0400002D
:1001C0009C040000103A24BF78C878C1FAD85207BE
:1001D00024BF30C830C144BF04680C6070470000C1
:1001E0000023002400250026103A28BF78C1FBD840
:1001F000520728BF30C148BF0B6070471FB500F0E1
:1002000015FA1FBD10B510BD00F031F81146FFF70B
:10021000F5FF00F0BBF900F04FF803B4FFF7F2FF71
:1002200003BC00F057F80000094880470948004720
:10023000FEE7FEE7FEE7FEE7FEE7FEE7FEE7FEE796
:10024000FEE7FEE704480549054A064B70470000F3
:10025000BD0400088901000878000020780600200D
:10026000780200207802002070477047704775467A
:1002700000F02CF8AE4605006946534620F0070012
:10028000854618B020B5FFF7DDFFBDE820404FF0F0
:1002900000064FF000074FF000084FF0000B21F070
:1002A0000701AC46ACE8C009ACE8C009ACE8C0093D
:1002B000ACE8C0098D46704710B50446AFF3008026
:1002C0002046BDE81040FFF7A8BF00000048704777
:1002D0001800002001491820ABBEFEE726000200EE
:1002E000704700BFFEE7704701B5044900980860F9
:1002F00000BF024800680028FBD108BD00000020B4
:10030000F0B50A4600210023002400BF3DE001258E
:1003100005FA01F3156805EA03049C4234D1056827
:100320004F000326BE40B543056015794E00B54029
:100330000668354305601579012D02D01579022D27
:1003400016D185684F000326BE40B54385605579B8
:100350004E00B540866835438560456801268E406D
:10036000B5434560456896798E40B6B235434560E1
:10037000C5684F000326BE40B543C560D5794E0021
:10038000B540C6683543C560491C1029BFD3F0BDD0
:10039000418370470183704700BFFEE700BFFEE75F
:1003A0007047704729B1064A12680243044B1A602D
:1003B00004E0034A12688243014B1A607047000050
:1003C00030380240704700000CB5002001900090CA
:1003D0003448006840F480303249086000BF31483A
:1003E000006800F4003000900198401C01900098D3
:1003F00018B90198B0F5A04FF1D12A48006800F46F
:10040000003010B10120009001E000200090009821
:10041000012846D123484030006840F080502149EF
:10042000403108602048006840F440401E490860A0
:100430001C48083000681B490831086008460068FD
:1004400040F4004008600846006840F4A05008608E
:100450001648091F0860081F006840F08070091FD7
:10046000086000BF0F48006800F000700028F9D055
:1004700040F205700E4908600A480830006820F014
:1004800003000849083108600846006840F002008F
:10049000086000BF03480830006800F00C0008281E
:1004A000F8D10CBD003802400070004008544007ED
:1004B000003C024010B500F035F810BD10B51548ED
:1004C000006840F47000134908601348006840F069
:1004D00001001149086000200F49083108600E48EA
:1004E00000680E4908400C4908600D48091D086065
:1004F000081F006820F48020091F086000200649BA
:100500000C310860FFF760FF4FF00060014980394F
:10051000086010BD88ED00E000380240FFFFF6FEE5
:10052000103000240448006820B103480068401ED1
:1005300001490860704700000000002000BFFEE78E
:100540001CB501212020FFF72DFF4FF4C060009063
:1005500001208DF8040000208DF8060001208DF8A0
:10056000070003208DF8050069460748FFF7C8FE1D
:100570004FF400710448FFF70DFF4FF4806102480B
:10058000FFF708FF1CBD000000140240FFF7D8FF72
:10059000224800684FF47A72B0FBF2F1481EB0F1C5
:1005A000807F00D31BE0481E4FF0E02250615017BF
:1005B0000F22002807DA13071D0E194B00F00F0455
:1005C000241F1D5503E013071C0E164B1C5400BFBF
:1005D00000204FF0E02290610720106100BF1BE077
:1005E0004FF400711048FFF7D3FE4FF480610E48BE
:1005F000FFF7CEFE4FF47A70FFF776FE4FF480617E
:100600000948FFF7C7FE4FF400710748FFF7C2FE25
:100610004FF47A70FFF768FEE2E700000400002064
:1006200018ED00E000E400E0001402404FF04070DC
:10063000E1EE100A70470000580600080000002094
:1006400018000000C401000870060008180000200F
:1006500060060000E001000800000000007A030AC4
:100660000000000000000000010203040607080962
:0400000508000229C4
:00000001FF
