:020000040800F2
:10000000E8980020F5010008EB0F0008150F000824
:10001000E90F0008D70500087D180008000000005F
:10002000000000000000000000000000D1120008E5
:100030001D0600080000000049110008CD1300084B
:100040000B0200080B0200080B0200080B0200085C
:100050000B0200080B0200080B0200080B0200084C
:100060000B0200080B0200080B0200080B0200083C
:100070000B0200080B0200080B0200080B0200082C
:100080000B0200080B0200080B0200080B0200081C
:100090000B0200080B0200080B0200080B0200080C
:1000A0000B0200080B0200080B0200080B020008FC
:1000B000551500080B0200080B0200080B0200088F
:1000C0000B0200080B0200080B0200080B020008DC
:1000D0000B020008A1150008DD1500080B0200083E
:1000E000950C00080B0200080B020008000000003D
:1000F0000000000000000000000000000000000000
:1001000000000000000000000B0200080B020008C5
:100110000B0200080B0200080B0200080B0200088B
:100120000B0200080B0200080B0200080B0200087B
:100130000B0200082D0800080B0200080B02000843
:100140000B0200080B0200080B0200080B0200085B
:1001500000F002F800F03FF80AA090E8000C82449A
:100160008344AAF10107DA4501D100F034F8AFF277
:10017000090EBAE80F0013F0010F18BFFB1A43F085
:10018000010318473C5D00005C5D0000103A24BF8D
:1001900078C878C1FAD8520724BF30C830C144BFEC
:1001A00004680C607047000000230024002500262E
:1001B000103A28BF78C1FBD8520728BF30C148BFCA
:1001C0000B607047642900F07980002070471FB5EC
:1001D0001FBD10B510BD00F0C4F91146FFF7F7FFC1
:1001E00003F030FA00F0E2F903B4FFF7F2FF03BCCA
:1001F00000F0EAF908480047FEE7FEE7FEE7FEE701
:10020000FEE7FEE7FEE7FEE7FEE7FEE703480449F8
:10021000044A054B7047000051010008E892002095
:10022000E8980020E8940020E89400200FB41CB562
:10023000074B06AA7B4469460090059800F079F9BF
:100240000020694600F088F91CBC5DF814FB000032
:10025000210300002DE9F0410E46044600202062F3
:100260002046E168884730B3252805D0D4E901212C
:100270009047206A401CF2E7E16820460027884743
:10028000050018D0A5F14100192802D820354FF4F7
:1002900000673246294620462760FFF793FF40B1AA
:1002A000012804D0F61D26F007060836D8E7361DCB
:1002B000D6E72846DAE7206ABDE8F0812DE9F0416B
:1002C0000646002410687529314616A510D0AFF3F4
:1002D0000080002802DA404213A507E031688A074F
:1002E00001D512A502E0490704D511A5012401E0BA
:1002F000AFF3008000210A2206F1240709E0B0FBD9
:10030000F2FCB0FBF2F302FB1C00303078541846CC
:10031000491C0028F3D123462A463046BDE8F04167
:1003200000F0A9B8000000002D0000002B00000024
:1003300020000000032A40F2308010F0030C00F08F
:10034000158011F8013BBCF1020F624498BF11F80F
:1003500001CB00F8013B38BF11F8013BA2F10402C8
:1003600098BF00F801CB38BF00F8013B11F0030340
:1003700000F02580083AC0F0088051F8043B083AA4
:1003800051F804CBA0E80810F5E7121D5CBF51F846
:10039000043B40F8043BAFF30080D20724BF11F8C0
:1003A000013B11F801CB48BF11F8012B24BF00F825
:1003B000013B00F801CB48BF00F8012B704710B596
:1003C000203AC0F00B80B1E81850203AA0E818504D
:1003D000B1E81850A0E81850BFF4F5AF5FEA027C0E
:1003E00024BFB1E81850A0E8185044BF18C918C07D
:1003F000BDE810405FEA827C24BF51F8043B40F81E
:10040000043B08BF7047D20728BF31F8023B48BF02
:1004100011F8012B28BF20F8023B48BF00F8012B40
:1004200070474FF0000200B51346944696462039B7
:1004300022BFA0E80C50A0E80C50B1F12001BFF49D
:10044000F7AF090728BFA0E80C5048BF0CC05DF803
:1004500004EB890028BF40F8042B08BF704748BF51
:1004600020F8022B11F0804F18BF00F8012B7047C5
:100470007047704770472DE9F0470D469946924600
:10048000044600F124080168880604D5E06921F0DB
:100490001001216000E00120A84201DD471B00E0BF
:1004A0000027A1697A1902EB0900081AA0612078D7
:1004B000C00602D42046AFF30080002608E0D4E94D
:1004C00001211AF806009047206A401C761C206221
:1004D0004E45F4DB2078C0060AD52046AFF30080F5
:1004E00006E0D4E9012130209047206A401C2062B8
:1004F000381EA7F10107F4DC07E0D4E9012118F860
:1005000005009047206A401C2062281EA5F10105C5
:10051000F3DC2046AFF300802078000602D50220ED
:10052000BDE8F0870120FBE701694A1C02610878F9
:10053000704700B58FB0CDE9013100210591054923
:100540007944CDE9031011466846FFF783FE0FB0EA
:1005500000BD0000E5FFFFFF0A6802F8010B0A601A
:100560007047754600F02CF8AE46050069465346C4
:1005700020F00700854618B020B5FFF747FEBDE81C
:1005800020404FF000064FF000074FF000084FF0FA
:10059000000B21F00701AC46ACE8C009ACE8C0098B
:1005A000ACE8C009ACE8C0098D46704710B50446F8
:1005B000AFF300802046BDE81040FFF715BE0000F5
:1005C000004870478492002001491820ABBEFEE726
:1005D000260002007047FEE71CB50E4B0E480022B5
:1005E0001A70006803E0017C042910D0C06800285C
:1005F000F9D1002A0AD173211F20CDE90001502131
:10060000A823C022084600F04FFF00201CBD012196
:1006100019701CBD20000020680000207047401E9B
:10062000FDD1704701B5154988B008984A69801A0C
:10063000FA2820D30898486111480A694068904216
:1006400019D00861010E8DF80810010C8DF8091001
:10065000010A8DF80A108DF80B009DF808109DF81E
:1006600009009DF80A30CDE900019DF80B2005A195
:1006700003A8FFF7DBFD09B000BD00000800002063
:10068000D000002020202025642E25642E25642EF5
:1006900025642020202000000149486170470000A7
:1006A00000900240044A0029D16901D0014300E0D2
:1006B0008143D16170470000009002400549002845
:1006C000886902D040F0020001E020F00200886159
:1006D0007047000000900240F0B5104C00234FF02E
:1006E000004744F2F05C561E606012E000EB031419
:1006F000C3EB431505EB831501EB05152760C4E932
:1007000001C5B34203D204F11005E56000E0E060EA
:100710005B1C9342EAD30249C860F0BD3C00002054
:1007200000900240426811B122F0004101E042F025
:10073000004141607047000005490028886902D0E7
:1007400040F4005001E020F4005088617047000040
:1007500000900240F0B50F4C00234FF48016551E58
:10076000206011E0C3EB431700EB031407EB831782
:1007700001EB0717A7602660AB4203D204F1100714
:10078000E76000E0E0605B1C9342EBD30249086144
:10079000F0BD00003C0000200090024002680A43C7
:1007A0000260704710B501218C03204600F0DAFC8E
:1007B0002046BDE81040002100F0D4BC01B581B056
:1007C00001980090002801D0401EFAE70CBD0000FF
:1007D0000248816941F480118161704700900240B4
:1007E00001480068806870473C0000200068C0F342
:1007F0000D407047074900204A68116811F0802FAA
:1008000006D1CB0504D5890502D51046FFF7EEBF0A
:10081000704700003C000020034900200968C90718
:1008200000D00120704700000090024010B501E0A8
:1008300000F0D4FBFFF7DEFF0028F9D14020FFF7DE
:100840002BFFBDE810404FF48030FFF725BF0000BC
:100850002DE9F04188B00027754E044600970197B6
:100860003069884620F01C0502A800F09FFC714901
:100870000398714A0144914202D245F0080506E00E
:100880006E4908446E49884201D245F00C05356135
:100890004FF400420021404600F0D2F900282DD04C
:1008A0006848FFF78BFF2068B0B3674D01980121BE
:1008B000401C0190404600F0F9F8400702D401982E
:1008C000A842F3D30198A84217D04FF480520021D8
:1008D0004046019700F0B4F900280FD0019801219B
:1008E000401C0190404600F0E1F8800602D40198D7
:1008F000A842F3D30198A84203D1002008B0BDE874
:10090000F08110214046019700F0D0F8410704D54E
:100910004FF40061216201E008E02762800701D501
:10092000676113E04FF4804060610FE0206A616905
:10093000C00840EA510082B20021404600F080F930
:100940000028DBD06FF07F40FFF738FF30683F4969
:100950000840D4E901121143E26854F8103F1A43E9
:10096000114362681143A2681143E268114322698E
:10097000114362691143A2691143E2691143226A7A
:100980001143626A114301433160F4E90A010843EB
:10099000D4E90212114308432169084361690843FD
:1009A000A1690843E16908437060206AB060606A29
:1009B000F060B0694FF641710840D4E90B12114361
:1009C000238D626B42EA03421143A26B1143E26B37
:1009D00011430143B161D4E910010843F0611C489F
:1009E00081691C4A1140D4E912231A43D4E9143511
:1009F0002B431A43A36D1A43E36D1A43236E1A4324
:100A0000636E1A43A36E1A430A438261D4E91B1230
:100A10001143626F54F8783F1A431143626841EA08
:100A20008201A268114341F400010160012065E7E1
:100A30000080024000D3CEFEC0E1E40040F1E9FDB9
:100A400040787D01FFFF0F00FFFF04000F8120FFB2
:100A500000900240233FDEF8054B8A881844026468
:100A60000A78D1F8011042EA012141647047000080
:100A70000080024005490028086802D040F00400C8
:100A800001E020F004000860704700000080024090
:100A900005490028086802D040F0080001E020F075
:100AA00008000860704700000080024018B500226E
:100AB0000092124A13694FF6FF7403F01C0304EA14
:100AC000C02018434FF4F86303EA8111014321F079
:100AD000020040F00100106109490098401C00909C
:100AE0001069C00702D000988842F6D30098884267
:100AF00001D1002018BD506980B218BD00800240AD
:100B0000FFFF040070B5114D002422462B681968C0
:100B100000290BDA0E4916464B691B0602D58023C5
:100B20004B618E6002604260826070BD0E0407D42B
:100B3000CE0505D58E0503D5C1F30D449A68241F53
:100B4000D96829600460C0E9012370BD400000201D
:100B5000009002400248016841F0010101607047C5
:100B60000090024000B50120FFF792FFFFF730FE32
:100B70000120FFF77FFF0120FFF7DEFD01205DF878
:100B800004EBFFF79BBD0021016041608160C16003
:100B9000016141618161C161016241628162C16241
:100BA0000163416340228163C0E90F122022C0E942
:100BB0001121C1640165416581658022C165C0E97B
:100BC00018128166C16601674167D2048167C0E976
:100BD0001F1252105310C0E921231311C0E9233111
:100BE000C0F89410C0F89810C0F89C10C0E9281202
:100BF0001212C0E92A125212C0E92C21C0F8B81012
:100C0000704700000C4B19680A68002A01DA0020BE
:100C10007047C0F30C00486042F03040086007485D
:100C20004269520703D50422426100224260C8682B
:100C300018600120704700003C0000200090024036
:100C400038B500230093114B1C694FF6FF7504F073
:100C50001C0405EAC02020434FF4F86404EA811123
:100C6000014341F003005A61186109490098401C92
:100C700000901869C00702D000988842F6D3009807
:100C8000884201D1002038BD012038BD00800240DB
:100C9000FFFF04007047000000B5AFB0012000F076
:100CA000C1F84FF4004000F009FB012000F000FB08
:100CB0003D2000F0DFFA0028FAD00B2000F0F2FA15
:100CC000FFF770FDFFF746FFFFF7A6FD0128FBD0F9
:100CD0006846FFF758FF0120009000204FF4007194
:100CE000CDE90A10090407901190CDE920010E907A
:100CF000149013900A1115902590269023920420A9
:100D0000CDE9280180032A9080012B9040122C907D
:100D100040002E9001216846FFF79AFD012102480C
:100D2000FFF7C0FC2FB000BD400001002DE9F843E3
:100D30000425ADF800500324DFF8D8908DF8024068
:100D400018268DF803606946484600F071F80620C1
:100D5000ADF80000304F8DF802408DF80360694611
:100D6000384600F065F843F62010ADF80000DFF8D3
:100D7000AC808DF802408DF803606946404600F073
:100D800057F801214FF0201000F0A0F80B20ADF82B
:100D900000008DF802408DF803506946484600F087
:100DA00047F82802ADF800008DF802408DF8035096
:100DB0006946404600F03CF80820ADF800008DF888
:100DC00002408DF803506946384600F031F84FF480
:100DD000F850ADF800008DF802408DF803506946D8
:100DE0000F4800F025F80220ADF8000000208DF833
:100DF00003006946404600F01BF8A801ADF800006A
:100E00008DF802408DF803606946484600F010F8FE
:100E1000BDE8F8830008014000100140000C0140CB
:100E2000001401400149C1F8DC0070470000204275
:100E3000F0B5CC78002204F00F03E40601D58C78DD
:100E400023430C784FF00F0C14F0FF0F4FF0010EFE
:100E50001BD005680E880EFA02F42640A64210D177
:100E600096000CFA06F725EA070703FA06F5CE788E
:100E70003D43282E02D0482E02D002E0446100E01B
:100E80000461521C082AE5D305600A88FF2A1CD990
:100E90004468002202F108060EFA06F50E882E407C
:100EA000AE420ED196000CFA06F7BC4303FA06F7E1
:100EB000CE783C43282E00D14561CE78482E00D113
:100EC0000561521C082AE5D34460F0BDF0B5104D11
:100ED0006B68440D260184B2C0F30157B440C0F3DF
:100EE0000342032F05D0C0020AD50320904083435C
:100EF00007E0686823F0706220F07060686002E0CC
:100F0000A34343F0706201B122436A60F0BD000068
:100F100000000140FEE7000010B513A088B0D0E942
:100F20000010CDE9031002F0D1FB02F0ABFC00246D
:100F30000694079403A8059400F034FA0C480D4970
:100F40000094CDE9011005AB07AA06A90A4802F0F2
:100F5000D5FC094802F00EFD074801F0F9F90648F2
:100F600002F054FD08B010BD0000000000010000B8
:100F70002529000879290008D000002031B5164C39
:100F800000992068081AFA2802D3216004F034FD81
:100F900000986168401A41F28831884203D3009872
:100FA000606001F095FC0098A168401AB0F5FA7FE6
:100FB00003D30098A06000F06BFE0098E168401A2F
:100FC0004EF66021884205D30098E060BDE83840C5
:100FD00000F0E8BC38BD000008000020014801F026
:100FE000EBBC0000D0000020FEE7704738B50021C0
:100FF0004FF0006000F09EF84FF4A06000F080F821
:101000003D208DF8000000258DF801508DF802502C
:1010100001248DF80340684600F040F814208DF854
:1010200000008DF801408DF802508DF803406846AD
:1010300000F034F840208DF8000002208DF8010007
:101040008DF802508DF80340684600F027F82520FF
:101050008DF8000003208DF801008DF802508DF806
:101060000340684600F01AF826208DF8000004209E
:101070008DF801008DF802508DF80340684600F0AD
:101080000DF81C208DF800008DF801408DF802400D
:101090008DF80340684600F001F838BD30B50F23E5
:1010A000C27801780125F2B1144A126801F1E021F9
:1010B00002F4E062C2F5E062120AC2F10404D34015
:1010C0004278A24084781C401443220181F8002415
:1010D000007800F01F018D404009800000F1E02001
:1010E000C0F8005130BD01F01F0085404809800064
:1010F00000F1E020C0F8805130BD00000CED00E0B0
:101100000249084302490860704700000000FA05E0
:101110000CED00E00907090E002806DA00F00F00C8
:1011200000F1E02080F8141D704700F1E02080F805
:1011300000147047024A11400143024801607047A1
:1011400080FFFF1F08ED00E070470000044A0029FF
:10115000516901D0014300E08143516170470000B3
:1011600000100240044A0029916A01D0014300E0C6
:10117000814391627047000000100240044A002938
:10118000D16901D0014300E08143D1617047000083
:1011900000100240044A0029916901D0014300E097
:1011A000814391617047000000100240F0B52C4B64
:1011B00059682C4A11F00C014FF00F0604D02A4C4C
:1011C000042903D0082903D0026028E0046026E047
:1011D00059685A6806EA914102F480320D2901D01B
:1011E000891C00E00621BAB1DA6A12F4803FDA6A9B
:1011F00002F00F0202F101020AD0DD6AC5F3031703
:10120000DD6A7F1CB4FBF7F4C5F30325AD1C6C430A
:10121000B4FBF2F24A43D7E7144A514301605968DC
:10122000134A06EA1111545C0168E14041605C68B0
:10123000072505EA1424145D21FA04F484605C682F
:1012400005EAD424125DD140C1605A68032303EA41
:101250009232074B1B1F9A5CB1FBF2F10161F0BDAA
:101260000010024000127A0040787D0100093D0024
:101270002C000020034600205909094A01290AD000
:1012800002290AD0516A03F01F02012393400B4246
:1012900000D0012070471168F5E7116AF3E70000FC
:1012A000001002400149C871704700000010024060
:1012B000014908677047000000004242034AD16AB2
:1012C00021F470410143D1627047000000100240D8
:1012D000704700000CB500222E4800920192016870
:1012E00041F4803101604FF4A063016801F40031E2
:1012F00001910099491C0091019911B900999942F5
:10130000F3D10168890342D50121019122490A687C
:1013100042F010020A600A6822F003020A600A68BA
:1013200042F002020A6041684160416841604168E0
:1013300041F480614160C16A184A1140C162C16ACA
:10134000174A1143C162016841F080610160016880
:101350000901FCD5416821F47C114160416841F4E8
:10136000E8114160016841F0807101600168890104
:10137000FCD5416821F003014160416841F0020160
:1013800041604168C1F381010229FAD10CBD01928B
:10139000FEE70000001002400020024000F0FEFFC7
:1013A00044060100084902780A7042784A7082783F
:1013B0008A70C278CA7002790A7142794A7101460C
:1013C0000020FFF749BB00004C00002000F0E0B80F
:1013D0000F48016841F00101016041680D4A114068
:1013E000416001680C4A11400160016821F48021CC
:1013F0000160416821F4FE014160016821F0A051C3
:1014000001604FF47F0181600021C162FFF762BF7C
:10141000001002400000FFF0FFFFF6FE10B5044C84
:101420002068FFF7FFF82068BDE81040FFF7A6BD71
:101430000000002030B585B0FFF7CAFF0121480445
:10144000FFF79CFE01214FF4E030FFF77FFE012102
:1014500040F27D20FFF79EFEFFF7C8FDFFF766FC18
:1014600000F0EEF8FFF718FC6846FFF79FFE0098C3
:101470006421B0FBF1F14FF0FF35B1F1807F0DD267
:1014800021F07F404FF0E024401E60610F2128468C
:10149000FFF740FE0020A0610720206101212846BF
:1014A000FFF738FE05B030BDF8B50D460646DDE95C
:1014B0000601120642EA034242EA0020084301F014
:1014C00064FB009003F070FA0A4C002860600FD0B3
:1014D0003246094902F07EFD002809D1074B2A4611
:1014E0006946606802F024FE0549606804F097F8D8
:1014F000F8BD000020000020AC5E00085115000877
:101500000515000870B514000D4610D02189284635
:1015100004F096F8228901232846616804F091FAC4
:10152000284603F07DFA204602F0AAFB02E00846B6
:1015300002F0AEFD002070BD70B5044692B20123EA
:1015400004F07FFA0546204603F06AFA284670BD8B
:101550000020704710B501218C07204600F00CF8E0
:10156000002805D02046BDE81040012100F001B858
:1015700010BDC9430182704702460020138A928938
:101580000B4202EA010202D0002A00D0012070477B
:10159000024801680A310160704700000000002025
:1015A00070B50D4C40F225552946204600F0E8F86C
:1015B00018B12946204600F033F840F22775294635
:1015C000204600F0DDF8002805D029462046BDE879
:1015D000704000F025B870BD0038014070B50120A2
:1015E00080F310880D4C40F225552946204600F026
:1015F000C7F818B12946204600F012F840F22775C6
:101600002946204600F0BCF818B12946204600F0D3
:1016100007F8002080F3108870BD000000440040EF
:101620000A0A01219140C94301807047002981893C
:1016300002D041F4005101E021F400518181704752
:101640002DE9F04F85B0012144F22500FFF7A2FDFE
:101650004FF40070ADF800001827454D8DF8037069
:1016600003248DF8024069462846FFF7E1FB2E155A
:10167000ADF800604FF0040B8DF803B08DF8024018
:1016800069462846FFF7D4FB4FF4805900254FF4F4
:10169000E138ADF80890ADF80C604FF00C0ACDF8C9
:1016A0000480ADF80A50ADF81050ADF80EA001A9B5
:1016B000304800F09DF8012240F225512D4800F0FD
:1016C0007EF801212B48FFF7B1FF40F2266129483F
:1016D000FFF7A6FF01214804FFF750FD0121082074
:1016E000FFF7F4FB2020ADF800008DF80370224FC7
:1016F0008DF8024069463846FFF79AFB4020ADF866
:1017000000008DF803B08DF8024069463846FFF7B7
:101710008FFBADF80890ADF80A50ADF81050174D9A
:10172000ADF80C60CDF80480ADF80EA001A92846F4
:1017300000F05EF8012240F22551284600F03FF803
:1017400001212846FFF772FF40F226612846FFF785
:1017500067FF1020ADF800008DF802408DF80300FF
:1017600069463846FFF764FB05B0BDE8F08F00001E
:1017700000080140003801400014014000440040CE
:1017800070B501F01F0501260024C1F3421306FACB
:1017900005F2012B0FD0022B0FD0838A4FEA1121C3
:1017A0000088134206FA01F600EA060001D000B1F3
:1017B0000124204670BD8389F0E7038AEEE710B567
:1017C000C1F3421301F01F040121A140012B07D0F6
:1017D000022B07D01430002A026805D00A4304E027
:1017E0000C30F8E71030F6E78A43026010BD0000C5
:1017F00030B50446008A85B00D464CF6FF710840AE
:10180000E98801432182A0894EF6F3110840A98896
:101810002A8911436A8902431143A181A08A4FF6A4
:10182000FF410840A9890143A1826846FFF7BEFC39
:101830001148844201D1039800E00298642200EB31
:10184000C00101EB001029686FF018058900B0FB9A
:10185000F1F0B0FBF2F109010B096B4300EB8300DF
:10186000322303EB0010B0FBF2F000F00F0008434E
:10187000208105B030BD000000380140FEE700289F
:101880000BD0026A002A08D01378082B05D109680A
:10189000126B914201D100F035B970472DE9FC413E
:1018A000050062D02C6A002C5FD0226D4FF03C0105
:1018B000501C4FF480374FF6FF734FF001060AD0EB
:1018C0001E32B2FBF1F0B84200D318460204120CEB
:1018D000228500D12685626D501C0AD01E32B2FBD3
:1018E000F1F1B94200D319460804000C608500D11B
:1018F000668514F1340000D0606B009070B902F07E
:1019000093F8000E7F2802D84FF07F4003E0C028F4
:101910000BD36FF0FF0001F038F9009014F138009C
:1019200000D0A06B019010B10BE01148F3E7206BE1
:10193000009908400190012001F027F9019908431E
:10194000019004F13001284602F028F86946284643
:1019500002F058F801A9284602F01BF8284602F0C8
:1019600055F80A21204600F0EBFCBDE8FC810000A0
:101970000000FFFF70B5046A05460821204600F00C
:10198000DFFC002204F13001284600F0A1FE60785F
:1019900040F2E731401C60704FF4FA70B1FBF0F098
:1019A000E08470BD164810B5046825E0206A10B3C5
:1019B000418D4A1E4285012906D0216A088D421EAA
:1019C0000A8501280CD016E0216A204609780129F1
:1019D00003D00A2901D005290DD100F09DFA0AE0B3
:1019E000216A20460978012903D00A2901D0052956
:1019F00001D100F0D5FB2468002CD7D110BD000028
:101A0000AC00002070B506000DD0346A74B100221D
:101A10004FF49A71104602F00BF8E06148B1627819
:101A200036494AB10BE06FF0090070BD6FF0080055
:101A300070BD4FF0FF3070BD0A68521C0A60096823
:101A400061604068012120620170206A00254170B8
:101A5000216A06208870206AC570606801F095F8D8
:101A6000216A4860206A0581206A4581206AC56034
:101A700020780A2803D0052801D0042802D1216A41
:101A80007068C860206A00210561206A4561206A8B
:101A9000856196F82400884203D9701890F82500D3
:101AA00000E0002001F11C02236A491C89B298540D
:101AB0001029EED3002000F12C01226A401C80B2D4
:101AC00055544028F7D3002000F16C01226A401CD5
:101AD00080B255548028F7D3094801F056F8216A9E
:101AE000C1F8EC00A5840020226A00F1F0015054F6
:101AF000401C80B24428F7D3002070BD9400002021
:101B000063538263F8B5046A06460C21204600F050
:101B100017FC3046FFF776FF05002CD10122352156
:101B2000204600F097F90421204600F0A3F9042292
:101B30003221204600F08EF9206B01F075FF01463E
:101B4000204600F09FF9204600F0CEF9A08CF0303E
:101B500081B2E06902F0E6F843220D49A06803F083
:101B6000DFFF009643230B4AE169A06804F0D6F832
:101B7000304600F011F860784FF4FA71401C607044
:101B800042F60310B0FBF1F0E0842846F8BD0000F7
:101B9000AC5E0008B05E000810B5002809D0046AE9
:101BA000002C06D0E06908B102F06AF80020E0617C
:101BB000206210BDF8B50646046A33480621006865
:101BC0002063204600F0BCFB3046FFF71BFF0500FA
:101BD0003ED101223521204600F03CF9012120466A
:101BE00000F048F902223921204600F033F9B18D86
:101BF000204600F068F904223721204600F02AF937
:101C00000121204600F036F90321204600F032F988
:101C10001C21204600F02EF90621204600F02AF96A
:101C2000204600F061F9A08CF03081B2E06902F04A
:101C300079F843221449A06803F072FF0096432309
:101C4000124AE169A06804F069F83046FFF7A4FF82
:101C50006078401CC1B26170062902D20120884020
:101C600000E03C2000EB4001C1EBC0104FF6FF71DB
:101C700001EAC0004FF4FA7100F2F310B0FBF1F08A
:101C8000E0842846F8BD0000AC5E0008B05E0008A5
:101C900070B50B48002504680EE0206A58B1C18C6D
:101CA000012903D9A1F10101C18404E003D1C58454
:101CB000204600F0BEFB2468002CEED170BD000071
:101CC000AC00002070B504460069002510B101F099
:101CD000E7FC25616069002803D001F0E1FC656143
:101CE000258370BD01784278090641EA0241827875
:101CF000C07841EA02210843704770B54369002467
:101D0000C3B3068BB6B3002210E0342D03D08D424E
:101D100006D1981870BD921C92B29C5C521C04E0D3
:101D2000521C92B29D5C521C2A4492B2964202D935
:101D30009D5CFF2DE9D1ECB1012C06D00269022C8B
:101D400007D0C0242C3200200FE0026980246C32BE
:101D5000F9E74024F6E78B4201D1104470BD401CE6
:101D600080B2135C401C184480B2A04202D2135CC3
:101D7000FF2BF0D1002070BD70B5046A0020332124
:101D80006063A063E0632046FFF7B7FF18B1801CD3
:101D9000FFF7A8FFE0643A212046FFF7AEFF18B135
:101DA000801CFFF79FFF01E0E06C400820653B21AD
:101DB0002046FFF7A2FF18B1801CFFF793FF00E059
:101DC000E06C6065206910F1100F31D0006920636C
:101DD00001212046FFF791FF28B1801CFFF782FF09
:101DE00000F0D3FE606303212046FFF786FF28B191
:101DF000801CFFF777FF00F0C8FEA0631C2120467F
:101E0000FFF77BFF28B1801CFFF76CFF00F0BDFEE1
:101E1000E06306212046FFF770FF060019D07078B6
:101E200080082064022801D90220206400250DE0EA
:101E30000020CCE706EB8500801CFFF753FF00F085
:101E4000A4FE04EB85016D1CEDB24864206CA84231
:101E5000F0D870BD10B5838C046A1C445B1C83846D
:101E600084F8F010818C036A0B44491C818483F848
:101E7000F02010BD828C036A1344521C828483F8C4
:101E8000F010704710B5828C046A0B0E1444521C7B
:101E9000828484F8F030828C046A0B0C1444521C47
:101EA000828484F8F030828C046A0B0A1444521C39
:101EB000828484F8F030828C036A1344521C82843A
:101EC00083F8F01010BD10B5828C046A0B0A14441C
:101ED000521C828484F8F030828C036A1344521CB2
:101EE000828483F8F01010BD002814D0818C036A1E
:101EF000FF220B44491C818483F8F020002205E076
:101F0000036A0B44491C818483F8F020818C4429A6
:101F1000F6D38B07F4D17047F8B5046A054604215F
:101F2000204600F00DFA2846FFF76CFD060029D187
:101F3000012235212046FFF78DFF03212046FFF7C0
:101F400099FF022239212046FFF784FFA98D204600
:101F5000FFF7B9FF2046FFF7C7FFA08CF03081B232
:101F6000E06901F0DFFE43221149A06803F0D8FDCB
:101F7000009543230F4AE169A06803F0CFFE28468D
:101F8000FFF70AFE6078401CC0B260700A2803D2D6
:101F90004FF47A71484301E042F2107080B24FF47E
:101FA000FA7100F2F310B0FBF1F0E0843046F8BDB6
:101FB000AC5E0008B05E00082DE9F041046A51688B
:101FC0000546E26008780026904602287AD1002073
:101FD00095F8242008E02B180F1893F825303F7F40
:101FE000BB426FD1401CC0B28242F4D8486801F0B5
:101FF0001BFD6168884265D1204600F054FA002834
:1020000060D135212046FFF778FE00285AD080782D
:10201000052804D0062819D0022839D052E02078AB
:10202000012806D003280CD004280AD0052808D09F
:1020300048E02846FFF7A0FEE6842846FFF79AFC12
:1020400040E0E6842846FFF729FC3BE0207803289F
:1020500005D0012803D0042801D0052832D1E68418
:1020600028462F6A01F08CFC1C49284601F096FC9A
:102070001A49284601F08DFC1849284601F0C2FC97
:102080000C21384600F05CF92846FFF793FD19E073
:102090002078062816D1E6842F462D6A3621284658
:1020A000FFF72BFE70B1801CFFF71CFE00F06DFDEA
:1020B000E862286910F1100F0DD0006928633846D6
:1020C00000F0BCF82046FFF7FDFD404601F0D8FDCA
:1020D000E660BDE8F0810020F0E70000AC5E00089B
:1020E000F8B5046A05460D21204600F029F90020C4
:1020F000E06260632063E063A06360652065E06484
:1021000020642846FFF77EFC060022D101223521FB
:102110002046FFF79FFE07212046FFF7ABFE204633
:10212000FFF7E2FEA08CF03081B2E06901F0FAFD29
:1021300004F12C0143220F46A06803F0F1FC009546
:1021400043233A46E169A06803F0E8FD2846FFF71B
:1021500023FD6078401CC0B260700A2803D24FF49F
:102160007A71484301E042F2107080B24FF4FA7184
:1021700000F2F310B0FBF1F0E084284601F000FC1F
:102180000649284601F00AFC0449284601F001FCF2
:102190000249284601F036FC3046F8BDAC5E000826
:1021A000F8B5046A05460521204600F0C9F828461E
:1021B000FFF728FC06002BD1012235212046FFF72E
:1021C00049FE03212046FFF755FE02223921204611
:1021D000FFF740FEA98D2046FFF775FE2046FFF76A
:1021E00083FEA08CF03081B2E06901F09BFD04F128
:1021F0002C0143220F46A06803F092FC0095432374
:102200003A46E169A06803F089FD2846FFF7C4FC5F
:102210006078401CC0B260700A2803D24FF4FA61A3
:10222000484301E044F6206080B24FF4FA7100F2B6
:10223000F310B0FBF1F0E0843046F8BDF8B5046A65
:1022400006460121204600F07BF83046FFF7DAFB16
:10225000050056D1012235212046FFF7FBFD032161
:102260002046FFF707FE022239212046FFF7F2FD44
:10227000B18D2046FFF727FE042232212046FFF7CA
:10228000E9FD206B01F0D0FB01462046FFF7FAFD87
:10229000042236212046FFF7DDFDE06A01F0C4FB91
:1022A00001462046FFF7EEFD042237212046FFF7C6
:1022B000D1FD01212046FFF7DDFD03212046FFF778
:1022C000D9FD1C212046FFF7D5FD06212046FFF74A
:1022D000D1FD2046FFF708FEA08CF03081B2E06906
:1022E00001F020FD00964323134AE169A06803F042
:1022F00015FD43221149A06803F012FC3046FFF798
:102300004BFC6078401CC1B26170062902D20120EA
:10231000884000E03C2000EB4001C1EBC0104FF6CC
:10232000FF7101EAC0004FF4FA7100F2F310B0FB44
:10233000F1F0E0842846F8BDB05E0008AC5E00080D
:1023400002788A4202D0017000214170704700007B
:1023500070B5050034D095F82E002C6A20F00800E6
:1023600085F82E00A88D4FF0FF36B0F5107F25D3ED
:102370004CB3A06808B103F0BBFCE06808B101F001
:102380007FFC58212046FEF74CF803F0A1FCA0602A
:1023900000B34422154903F095FB43221349A0687A
:1023A00003F0BEFB2A461249A06803F09EFC2846B3
:1023B000FFF700FCA0B1284600F01CF8304670BDC5
:1023C0006FF0090070BD582001F09AF90400F5D0B3
:1023D0002C62D6E7204601F063F900202862EDE781
:1023E00015F82E1F41F00801297070BDAC5E000881
:1023F000B91F000870B505002C6A19D095F82E0099
:10240000002C20F0080085F82E0011D0A0680026CE
:1024100010B103F06DFCA660E06810B101F030FC73
:10242000E6602046FFF74EFC204601F039F92E62A7
:1024300070BD10B5026A044611780C2911D0062926
:102440000FD0012911D0082917D0052921D004293E
:1024500028D15078082820D82046BDE81040FFF742
:102460005BBDBDE81040FFF7A5BB5078052814D828
:102470002046BDE81040FFF7E1BE50780128204615
:1024800003D8BDE81040FFF775BABDE81040FFF76C
:1024900005BABDE81040FFF783BE2046FFF720FED7
:1024A0002046DEE710BD70B5040026D0E06838B3E2
:1024B0002046FFF707FCE0684FF0FF350089F02861
:1024C00006D9F03880B2208301F01AF96061D0B1EA
:1024D000F02001F015F92061B8B1E568014600234C
:1024E000F022284601F098FB616921B1228BF0238C
:1024F000E06801F091FB002070BD6FF0090070BD35
:102500006FF0080070BD284670BD606901F0C8F822
:1025100000206061F7E72DE9F84390460E4605007C
:1025200064D0B8F80A002A285DD30120D8F8044006
:1025300000F02DFBE189884255D140F2046000F0A3
:1025400026FB618A88424ED14FF4006000F01FFBE9
:10255000218A884247D140F6060000F018FBA18985
:10256000884240D1E0690090D4F82610686818B11C
:10257000814203D1012702E0002703E000270FB1C9
:10258000012300E0002304F116026946284603F007
:102590001DFCA08A00F0FBFA012802D0022822D1FB
:1025A0001DE007B3022000F0F2FAA082E069C4F84F
:1025B00026006868E0610622521E12F0FF0204EB5A
:1025C0000200817D80F82010A154B15C8175B15C5E
:1025D0008171F1D1AA6941462846904703E06946D6
:1025E0002846FFF74CF9404601F04AFBBDE8F88366
:1025F00030B400280ED0496882684468D1F81A3097
:1026000014401340A34205D100238A1D30BC1A3167
:1026100003F0DCBB30BC70472DE9FC410E4605469B
:1026200014460E21304601F04DFB18B16FF0010049
:10263000BDE8FC812946204600F09AFB08B1234BF7
:1026400028E04FF0704001F0EFF9216800EA01073F
:102650004FF0604001F0E8F9874222D101208DF867
:10266000000000208DF801005E208DF80200206837
:1026700001F0DAF9C0F306408DF80300206801F09C
:10268000D3F9000A8DF80400206801F0CDF98DF827
:1026900005006B4605F125023146284600F0FCF89E
:1026A000C6E7A86821686A6801400240914203D0E9
:1026B000E86838B105F10C0432462146284600F09E
:1026C00007F8B5E76FF00300B2E70000B45E00085A
:1026D0002DE9F05F0E46824600F1250B17464FF0BC
:1026E000FF385146304600F043FB08BB4FF07040C6
:1026F00001F09AF9316800EA01044FF0604001F0FE
:1027000093F9844214D09EB1306888B101213046DB
:1027100000F08EF900280DDBDFF8B49000EB8005A7
:1027200009EB8504A07B38B1012807D037B10BE055
:102730006FF00900BDE8F09F0120A07331465046BC
:1027400000F098F880462FB3A07B4E46022802D0B6
:10275000012808D03AE004F108035A4639465046A9
:1027600000F09AF831E000213C46207B012803D19B
:102770002468002CF9D171B121890022032001F0D5
:1027800057F9040022D0394601F0FEF940B1204645
:1027900001F076FA1AE03C46384601F0EAFAACB1AC
:1027A000062001F09BF80100F1D00020C1E90004EF
:1027B00056F8250008B905E010460268002AFBD14A
:1027C000016001E046F82510002080464046B1E750
:1027D000BC9100202DE9F05F1746DDE90B9B884690
:1027E00082461E4600222A21032001F021F905001D
:1027F0003CD06C680D9800F0CAF9A0820620401EFB
:1028000010F0FF0004EB0001325C8A7519F800201B
:1028100081F820203A5C225418F800208A71EED109
:102820000A980068E061DBF80000C4F82600012087
:1028300000F0ADF9E0814FF4006000F0A8F92082CB
:1028400040F2046000F0A3F9608240F6060000F058
:102850009EF9A081DAF81820504629469047044690
:10286000284601F00DFA2046BDE8F09F4FF0FF30FA
:10287000FAE700001FB50123064C021DCDE9021343
:10288000CDE9002400F125031946A21FFFF7A2FF9E
:1028900004B010BDBA5E00082DE9F0414D680E4647
:1028A00007460624641E14F0FF0405EB0401185DBE
:1028B0002855105D8871F5D14FF4006000F067F97C
:1028C000A88131463846BA69BDE8F041104700009A
:1028D0002DE9F0410024124FA04604EB840507EBDC
:1028E0008506F07B401CC0B2F073B17B022902D098
:1028F000012903D00DE0F02802D20AE0022808D313
:1029000057F8250018B100F031F947F8258086F80E
:102910000E80641CE4B20A2CDFD3BDE8F081000015
:10292000BC91002070B5044640680D46808900F0D7
:102930002EF9B0F5006F04D0A0F5006006380AD17A
:1029400012E021462846FFF753FE6FF00D012046A6
:1029500001F0B8F918B1204601F092F90AE02946D1
:10296000204600F0B5FA05E0224605F1250128468B
:10297000FFF7D1FD002070BD10B50446082000F01F
:10298000BFFE90B17321E06184F82F10742184F8A8
:102990003010074961610749A16104F12501016017
:1029A000204600F0D7FD002010BD4FF0FF3010BDD5
:1029B00019260008DD3500082DE9FE438146002573
:1029C0006846FEF79FF8DDE901710098884681B2FC
:1029D0000322104601F02CF806000AD004467919AB
:1029E00062896068FDF7A6FC608924680544002CB4
:1029F000F5D10E484FF00041C8F8001041690906B2
:102A000003D5802141610021816066B1D9F8102091
:102A1000494630469047040002D0304601F030F974
:102A20002046BDE8FE834FF0FF30FAE700900240F9
:102A30002DE9F35F4FF00A0A4FF00001DFF824B1EF
:102A40000400D14652468C460F46D0460E4611D061
:102A50004548057805EB85030BEB8300837B022B50
:102A600008D123684068834204D168B2BDE8FC9F66
:102A70000A2A07D1DFF8ECE001EB81030EEB8300BB
:102A8000807B48B101EB810B0EEB8B00837B012B2C
:102A900004D0022B18D026E04AB224E01CB12368EF
:102AA0004568AB4215D05EF82B3033B1C57BB542DB
:102AB00019D34FFA81F82E4615E0C37B634512D334
:102AC0004FFA81FA9C460EE03CB123684568AB4260
:102AD00003D12548017048B2C8E7C07BB84202D391
:102AE0004FFA81F90746491CC9B20A29C0D34FF0F1
:102AF000FF310A2A02D10198C00731D0019880071E
:102B00002ED44FF0000B0A2A01DAD5B219E0B9F140
:102B10000A0F02DA09F0FF0513E0BAF10A0F02DA30
:102B20000AF0FF050DE0B8F10A0F19DA08F0FF0509
:102B30000C4F05EB850657F8260000F017F847F80C
:102B400026B0084805EB850200EB8200594680F864
:102B50000EB00CB122684260C1730348057084E76F
:102B6000084683E7BC910020CC00002070B50446E5
:102B700008E02546D5E9004001F082F82946062004
:102B800000F074FE002CF4D170BD00BA704740BA5A
:102B900070470A46032100F08AB82DE9FE4F4468C9
:102BA00005468A46208800F041FFC0F303204FEA23
:102BB0008009C9F100018846284601F083F8002801
:102BC00070D1288904286DD368680078082869D1F5
:102BD00001264FF0704000F027FF216900EA01074D
:102BE0004FF0604000F020FF874200D100265146A0
:102BF00004F1100000F0BCF8002853D1002E51D091
:102C0000288908284ED3284600F08EF8E8BB2221F8
:102C1000284601F057F8D0B14946284601F052F84D
:102C200098BB29890022022000F002FF060039D05B
:102C3000294600F0A9FF40BB41463046746801F0C8
:102C400041F810BB284601F01BF8354605E06FF04F
:102C50002101284601F036F8B8B96868E1682269B0
:102C6000E2602161002606704680208900F0DEFEC9
:102C7000C0B240F47F40FFF78AFF20816681494659
:102C8000284601F01FF800B900E00BE00121CDE972
:102C90000061FF230022CDF808A004F10C012846B2
:102CA00000F0FAF92846BDE8FE4F00F0E9BF2DE933
:102CB000FC4791460E46804600222421012000F068
:102CC000B7FE050024D06C68D8F804701C2226706A
:102CD00084F801900026A680E6806868D8F8041081
:102CE0000830FDF727FB66806989204600F016F85A
:102CF00060800120CDE90060FF2307F10C02002174
:102D0000284600F0AFF92846BDE8FC4700F0B8BF00
:102D1000BDE8FC870A460B21FFF7C9BF10B500F0DC
:102D200073FCC04380B210BD70B500240546264632
:102D300013E06989686800F067FC204481B201EB08
:102D40001044A87AC00707D0C6F10100C6B2E0B2AD
:102D5000C4F3072141EA00242D68002DE9D126B1F2
:102D6000E0B2C4F3072141EA0024E04380B270BD21
:102D70000068421C12D088B191F82E2092070BD522
:102D80004A68824208D0896800EA01030A409342F7
:102D900002D10143491C01D0002070470120704737
:102DA0002DE9F74F84B0022205984FF0140B002153
:102DB000868D104600F03CFE5FEA000A23D04348AF
:102DC000AAF80A60AAF8086020F00305CAF80450BF
:102DD0000498142241682846FDF7ACFAE88800F010
:102DE00025FEC0F30C0700F40050029004980089FF
:102DF000143884B2143EF01706EB5070C0F3CF00C5
:102E0000CDE9000651E04FF0FF3007B0BDE8F08F8C
:102E10000198844201DC012000E000205FEA000903
:102E20000298C7F30C0646EA000645D0204680B259
:102E3000804602465B4605F11401049800F0ECFE62
:102E400058441FFA80FB3046FFF7A1FEE88008F1E6
:102E5000140080B2FFF79BFE688000206881142177
:102E60002846FFF75BFF6881B9F1000F05D004F138
:102E7000140081B2504600F055FF00221146022096
:102E800000F0D6FD06001CD0514600F06BFE059800
:102E90003146069A43699847304600F0F1FEA4EBAC
:102EA000080084B20098384487B2002CB0D1504654
:102EB00000F0E6FE0020A8E7009846F40056C000A7
:102EC000B5E7504600F0DCFE9DE70000DE8B0020F9
:102ED0002DE9F84F4568064688464FF0010A2888D4
:102EE00000F0A4FD0421B1EB103F12D1288800F0BE
:102EF0009DFDC0F303204FF6FF7101EA8009688849
:102F000000F094FD728901464A4502D33089884217
:102F100003D2304600F0B4FE64E0304600F002FF19
:102F200005F11000DFF834B1012744460090204637
:102F300000F00AFD68B1201D0BD0606848B1296916
:102F4000814204D021460098FFF712FF08B15CB11E
:102F500017E01FB10027DBF8004000E0246844457B
:102F600000D12468002CE2D1288900F05FFDC0B2B6
:102F7000112806D105EB0900408800F057FD4428D0
:102F80002ED0BAF1000F13D0414605F10C00FFF727
:102F9000EFFE0028BDD14FF0704000F045FDE9681C
:102FA00000EA01074FF0604000F03EFD8742B0D0DC
:102FB000002CAED043F6FF70FFF7E9FDE988084228
:102FC00005D0304600F0CEF806000BD07568244CD2
:102FD00041463046C4E9018500F0FCFE28B138E0E6
:102FE0004446E5E70020BDE8F88F288900F01EFD83
:102FF000C0B2012813D006280CD01128414605D0B4
:1030000005F11000FFF7B4FE70B11FE0304602F08A
:10301000ADFD1EE04146304601F0A0FA19E0414600
:103020003046FFF7BAFD14E04FF0704000F0FCFCB2
:10303000296900EA01074FF0604000F0F5FC874283
:1030400004D0022130467560FFF7A3FD304600F042
:1030500017FE00206060A060C4E70000AC00002004
:10306000B80000202DE9FE438146DDE90A541F46E1
:1030700016468846104600F049FA50B10095CDE951
:1030800001403B4632464146484600F005F8BDE85F
:10309000FE836FF00300FAE72DE9F05F1F46DDE9DC
:1030A0000BA5DDF828B05FEA02088946064641D044
:1030B0001421304600F006FE18B16FF00100BDE8A3
:1030C000F09F7468208900F0B1FC67F31F20FFF7C0
:1030D0005EFD208100F0AAFC20F0FF0040EA0A001B
:1030E000FFF755FD2081D8F8000020611FFA8BF012
:1030F00040F48A40FFF74BFD20803089FFF747FD01
:10310000174F60804FF0000AA4F806A03888FFF738
:103110003EFDA0803888401C3880B9F1000F02D0F5
:10312000D9F8000010B9281D00D06868E060A4F844
:103130000AA002E0706800F11008A88D48B131893A
:10314000814206D9424629463046BDE8F05FFFF786
:1031500027BE4246314628466B69BDE8F05F1847F6
:10316000B80000202DE9F14F00270098446820881E
:1031700000F05CFCC0F3032005287DD1E08800F05E
:1031800055FCC0044FEA104A608800F04FFC054629
:10319000208800F04BFCC0F30320404205EB800088
:1031A0001FFA80F9009800F0E6FC594D0646288881
:1031B00030440A2809D93146204600F06DF900282C
:1031C0005AD0288830440A2856D8A8466D684FF04F
:1031D000000B0DE06869E168884207D1A8692169A0
:1031E000884203D1A889A188884204D02F462D683F
:1031F000002DEFD106E02DB1E08800F017FCC004EF
:1032000024D02EE0052000F069FB05000AD13146EC
:10321000204600F041F9B04216DB052000F05EFBCD
:10322000050011D02021FDF7FCF80320E877D8F83D
:10323000041029601422214605F10800C8F8045042
:10324000FDF778F8C5B10CE05D46FBE7E88900F0D2
:10325000EDFBC00405D01422214605F10800FDF75E
:1032600069F8B8F800103144A8F80010E08800F0C0
:10327000DDFB800408D400E045E0A87F40F00100B9
:10328000A8770AEB0900A8832846009900F042F8C5
:10329000002836D0A88B14221430A883686805F162
:1032A0000801466830463468FDF744F8A88BFFF7FC
:1032B0006EFC7080A6F806B0A6F80AB0142130465D
:1032C000FFF72CFD70816FF0130AD5F8049009E028
:1032D00051462046666800F0F5FC2146484600F05D
:1032E0002DFC3468002CF3D13946284600F08AF8CA
:1032F000484600F040FCB8F80020101AA8F800007A
:103300004846BDE8F88F009800F0BAFC0020F8E7C6
:10331000C40000202DE9F047D1F8049080460E4605
:1033200000240125B9F8020000F080FB0746B9F837
:10333000000000F07BFBC0F30320404207EB800756
:10334000B9F8060000F072FBC0047268030C00209C
:103350001060D81993801FFA80FCA2F806C0D8F834
:1033600004101CE048688788BB420DD211603CB154
:10337000E788BB4236D38088844533D8266001E095
:10338000C8F8046069B116E02CD0C1888B4229D3FB
:103390001CB1E188B94200D000250168044600292B
:1033A000E0D134B12660E0889188884203D00025BE
:1033B00001E0C8F8046098F81E00C0070ED065B19F
:1033C000D8F804004068808830B9116829B148688D
:1033D000D1888288914203D000252846BDE8F08735
:1033E0000246F2E7304600F0C6FB01460448028878
:1033F000511A0180304600F043FC0020EEE7000047
:10340000C4000020074A30B40B4654680168844267
:1034100001D1516000E01960014630BC052000F088
:1034200025BA0000C40000202DE9F041446806469A
:10343000884660680025818891B900687060142210
:1034400006F108016068FCF775FF01212046FFF7CF
:1034500061FC204600F08FFB0546204600F010FC82
:10346000746809E0606827460468384600F083FB0A
:103470000544384600F004FC002CF3D141463046A8
:10348000FFF7C0FF03490888401B08802846BDE8B5
:10349000F0810000C40000202DE9F041DFF86880D1
:1034A0000F4605460026002213461446D8F80400AD
:1034B0001AE04169D5F80CC0614509D18169D5F898
:1034C00010C0614504D18189B5F804C0614507D0B9
:1034D000641C22B1C17F92F81FC0614500D802462A
:1034E000016801B1034608460028E2D122B119461D
:1034F0001046FFF799FF0644BE4201DA012CD2DCE8
:103500003046BDE8F0810000C400002070B50546DB
:103510000E4804680DE0204600F016FA40B1A0689D
:103520002968626801400240914201D1204670BD85
:103530002468002CEFD1064C206820B100F004FA7A
:1035400008B1206870BD002070BD0000AC000020F4
:10355000B000002070B5062100F8241F1C490A782D
:1035600042704A7882708A78C270CA7802710A7989
:1035700042714979817140F2DC51018132218172BD
:1035800014490222A1F5BF50FDF7E4F812490422C4
:10359000A1F16000FDF7A0F80F4D0024603D05EBA0
:1035A00004100121FDF7BEF8641C042CF7DB0A4D62
:1035B0000024203D4FF4400605EB04103146FDF792
:1035C000EDF8641C022CF7DBBDE87040FDF7CABAC9
:1035D0004C000020241900206401002070B50C4626
:1035E0000025FDF7FDF8064607E06289701961685D
:1035F000FCF7A0FE608924680544002CF5D1A8B230
:10360000FDF700FB002070BD30B4002208E010F888
:10361000013B1C0210F8013B2343891E1A4489B266
:103620000129F4D811B1007802EB002290B200EB2E
:103630001240010C02D081B201EB104030BC80B2CC
:10364000FFF7A5BA88B014220FA102A8FCF7B7FEB5
:10365000FDF7F0FEFDF760FC73211F20CDE90001AE
:103660005021A823C0220846FDF71EFF0B4CFCF793
:10367000B3FF18B1112202A9FDF75EFF2046FCF747
:10368000CEFFFDF7CBFEF2E774637020BFCDBBA782
:10369000B6CBCAB5D1E9210A00000000FFFF0F0038
:1036A000002810D008494A6890420CD38A6890429A
:1036B00009D2002200F8042CCA680838904200D2CF
:1036C000C86000F05DBB7047980000200A4810B544
:1036D0000A4A20F003014FF4005351600B8000248C
:1036E0004C800C7101F5005001249060047103803E
:1036F00043801470D16010BD1B250020980000206D
:10370000F0B5002847D04FF6FC71C01C00EA010359
:103710004FF4005C0C2B01D20C2301E063453ED832
:10372000DFF880E0C3F50054DEF80C50DEF804202A
:10373000A81A81B231E0501806796EBB0688761A55
:10374000083E9E4228D3048803F11406641A012718
:10375000083CB44210D30B4408339CB21319002622
:103760001E7106881E805980048007711988614582
:1037700003D0931CCC5200E00771A8420AD1DEE9C5
:1037800002310C7934B1994204D009881144CEF841
:103790000C10F6E70830F0BD515A8C42CBDC00200B
:1037A000F0BD0000980000202DE9F04F4FF6FC72AC
:1037B000C91C11404FF400590C2901D20C2101E021
:1037C000494510D8284E7468A0420ED3B268904282
:1037D0000BD2A0F10802131B15889BB2EF1A083F09
:1037E000BFB2B94203D94FF00000BDE8F08FFCD062
:1037F00005EB040C1C4DB2469CF80480EE686D6825
:103800004FF0000B05F10205B8F1000F16D001F1E1
:10381000140CBC45E9D8194408318FB2E119B14202
:1038200001D2CAF80C1081F804B014880C804B80C7
:10383000178009884945D8D04F53D6E71944083135
:10384000BCF8007089B2664502D16618CAF80C60EF
:103850000C4484F804B027806380118022884A4594
:10386000C3D05153C1E7000098000020002905D0C3
:10387000034A52F820300B6042F8201070470000D5
:103880002C450020F0B50020401C80B20928FBD355
:103890001048104C20F0030100200F4E0746273C33
:1038A00006F1120544F82070002209E054F8203097
:1038B0000B6044F8201036F81030521C194492B2B4
:1038C00035F810309342F1D8401C80B20928E9D372
:1038D000F0BD000053450020885E0008014609281D
:1038E00001D300207047044A52F821000028F9D083
:1038F000036842F8213070472C4500202DE9F04143
:10390000044606A890E8E00000206060A060E06047
:1039100084F82E00C4E907500A4D287884F8310055
:10392000401C28702046276100F013F82046B0475D
:1039300010B10020BDE8F0816868206020466C600E
:10394000F8E70000A800002090F82E0000F0010029
:10395000704770B51D461646044600F01FF8314604
:10396000204600F04FF829462046BDE8704000F0A0
:1039700010B800000149886070470000A8000020CE
:1039800090F82E10CA0703D021F0010180F82E1004
:10399000704701B10968C1607047000070B5054605
:1039A0000C460868696888421ED0144800680AE01E
:1039B00001686A68914205D10121C66800F03EFAAB
:1039C000304600E0C0680028F2D10D48006809E0E8
:1039D00007D0016829B16A68914202D144B12168D7
:1039E0000160C0680028F3D12CB12068686070BD08
:1039F0004FF00001F4E74FF00000F7E76800002007
:103A00006400002001B109688160704790F82E10B1
:103A1000CA0708D141F0010180F82E10890602D5AD
:103A2000011DFEF727BF704700BA704740BA7047C4
:103A30002DE9F04717460D46002630B1012805D084
:103A4000022804D003284BD102E0142614360E3687
:103A50004FF001094FF00008F7B3012F5CD0022F9F
:103A60005AD0032F3CD10820FFF738FF041E38D06E
:103A7000A0191330277320F00300C4E90080F61C5E
:103A800026F00300A0F2DC5040422581A84200DD70
:103A9000284680B26081A4F80E9026462D1A40F286
:103AA000DC5A16E00820FFF719FFB0B1077380F861
:103AB0000D80C0F80080A9B230600181514500D36B
:103AC0005146418100F110024260A0F80E906D1A3B
:103AD0000646002DE6DC2BE005E0204600F0D0F89D
:103AE0000020BDE8F08706F1130020F00301E81C78
:103AF00020F00300084480B2FFF702FE041EF0D05D
:103B0000A019133020F00300606025816581C4F89E
:103B1000008084F80C800BE00720FFF7DFFE041E16
:103B2000DFD0C4F8048025816581C4F80080277344
:103B3000A4F80E9084F80D802046D2E710B5002836
:103B40000FD000290DD004E003890C8923440381A0
:103B500010460268002AF7D102890B891A440281B3
:103B6000016010BD10B50C46FFF7E8FF2046BDE828
:103B7000104000F0FEB8002102E0491C0068C9B204
:103B80000028FAD1084670472DE9F0474FF00007AA
:103B90000C4605003E4604D01CB128892189884284
:103BA00003D26FF00900BDE8F0876FF0080968895B
:103BB0006189C01B891B884201DB88B200E080B2AA
:103BC000804660684246811968683844FCF7B2FB59
:103BD00007EB080087B206EB080086B26889B84296
:103BE00001D12D6800276089B04201D824680026E1
:103BF0002CB160892189884201D1206830B93DB15A
:103C000068892989884203D1286808B14846CAE7EB
:103C1000002CCCD10020C6E72DE9F0471646894696
:103C20004FF00008002806D0B9F1000F02D000279D
:103C3000044620E00020BDE8F0872BB1608998425F
:103C400002D8181A83B215E06089C01A85B2B5424D
:103C500000D9354660682A46C11809EB0700FCF711
:103C600069FB08EB05001FFA80F8781987B2701B12
:103C700086B2002324680EB1002CDED14046DAE77C
:103C800070B5002815D00024C189491E0904090C0B
:103C9000C1810DD1017B056803290BD001290CD00E
:103CA00002290AD0FFF7FCFC641CE4B22800EBD127
:103CB000204670BD0146082001E001460720FFF7BD
:103CC000D5FDF1E710B541B138B1002907DA4A4214
:103CD00093B242899A4223D302E0002010BD8BB2F6
:103CE000027B446832B1032A04D0022A0AD0012A96
:103CF00008D015E0621A00F1100342609A4208D21F
:103D000044600DE000290BDA42899A4208D3621A16
:103D1000426042890A444281028911440181DCE700
:103D2000012010BD70B502898A4221D98A1A0D4638
:103D3000044605E0281A85B22089104420812468B1
:103D40006089A842F6D3207B50B96089A84207D089
:103D5000A088001B284481B22046FFF725FD0446B9
:103D600065812581206808B1FFF78AFF0020206067
:103D700070BD002802D0C189491CC1817047000074
:103D800030B5134C018862681144931C88420DD0F1
:103D90000D795DB9A568A94208D0E5688D4200D1CA
:103DA000E0600D8805800988851ACD52418811444C
:103DB00081420BD00D79002D08D1E568854200D1F4
:103DC000E16004880C800088891AC15230BD00006F
:103DD000980000202DE9F047476880460026388982
:103DE000FFF724FEDFF850A000F0FF090025DAF805
:103DF00000401CE0217C494516D1D4F814C0BCF128
:103E0000000F11D007F10C0342462146A069E0479C
:103E100050B14FF00008012635B1E068E860DAF8EB
:103E20000010E160CAF800402546E4680EB9002C95
:103E3000E0D13046BDE8F087B40000202DE9FF5FF7
:103E40000446007C8B460A2832D0D4F858A0D4F817
:103E50002490BCB320680390201D00D060680290BD
:103E6000268B278C21461948D4F81480D4F890501A
:103E700000F0CEFFA06F08B101F09DFC606F08B1AB
:103E800001F099FC21460220FFF7F0FC1DB16FF014
:103E900004014046A847BBF1000F07D002AB03AABC
:103EA00049465046CDE9006701F029FCBDE8FF9F77
:103EB00006482146001D00F0ABFF21460220FFF717
:103EC000D5FCF3E7FFE70020C5E70000680000200D
:103ED0002DE9F04106460220FFF700FD3A4D0400AF
:103EE00037D100231A46AC68A86906E0016B611A55
:103EF000994201D30B460246C0680028F6D11AB198
:103F000001211046FFF79AFF0220FFF7E7FC0400AB
:103F10001FD17F272346D5F808C068690DE0417C92
:103F2000B14209D8B94207D8026BACEB0202A242F7
:103F300002D3144603460F46C0680028EFD11BB1D8
:103F400001211846FFF77AFF0220FFF7C7FC0400A3
:103F500037D0A021FCF765FA402004F8110F40F695
:103F60006830A4F85D000023A4F85F30A4F81700BF
:103F7000A4F8190004F8073CFF2004F8060C4FF4DD
:103F80000670A4F827000620A4F83700A4F8333000
:103F9000A4F83500C01FA4F825000120A4F84100B2
:103FA000E41D00F035FDE064206460632065A868CE
:103FB000A06123770548E0660548E06784F885300E
:103FC000183C2046BDE8F08154000020255600082A
:103FD00000DD6D002DE9F0410546007C0C4618B16E
:103FE0006FF00C00BDE8F08112B900F0E1FC024670
:103FF00026486FF00A0300680BE0018B914207D15D
:10400000A0B3016891B38CB326687EB3B1422DD0C2
:10401000C0680028F1D11D4E103E70690BE0018B85
:10402000914207D110B3016801B3FCB12768EFB129
:10403000B9421BD0C0680028F1D1F0680BE0018BB9
:10404000914207D190B1076887B17CB1216869B10D
:104050008F420BD0C0680028F1D1B06909E0018B14
:10406000914205D101682768B94201D11846B9E7E4
:10407000C0680028F3D114B1206800B128602A83F9
:10408000F068E8600020F560ACE700006400002004
:1040900070B50446007C0526082840D2DFE800F011
:1040A000041C252C2C3F3F3420490025C868A04221
:1040B00001D1C06808E0C86138B1C0680028FAD0F2
:1040C000A042F8D1E068C969C8600020E0602146DC
:1040D0000220FFF7CBFB27E01448002521461030D3
:1040E00000F096FE21460320F3E710480025214604
:1040F000143000F08DFEEAE70121204601F068FB54
:10410000050009D1267407E00121204601F060FB7B
:10411000050001D10920207434B115B104E0002557
:1041200002E0204600F07CFC284670BD54000020D0
:104130002DE9FC410446007C1E460F4618B16FF085
:104140000C00BDE8FC812FB1386860602284208BB0
:1041500018B105E06FF00800F3E700F029FC2083B8
:1041600000F056FC002544F8245F39466063401E89
:10417000A062606440F66830A080E080A56020877F
:104180004FF40670A08200F035F8A08200EB8000AA
:104190004FF6FF71012201EA4000E28520860220ED
:1041A000134904F8140C6666C868243CA04202D186
:1041B000C068C86009E0C86138B1C0680028FAD09A
:1041C000A042F8D1CB69E068D8604869E0604C61F2
:1041D000CDE90052002202231146204600F01AF8D1
:1041E000050002D1204600F01BFC2846A9E700008C
:1041F0005400002010B504460846FFF787F938B18F
:10420000808D28B1283880B2844200D220460446EE
:10421000204610BD2DE9FF4F83B005461199059842
:104220000843069950EA81706FF0090103D00598A0
:1042300028B9049818B1084607B0BDE8F08FB5F862
:104240006E100598814205D215F8220F40F08000CB
:104250002870FDE007461198DDF810B0C00700D0C7
:1042600004201199890701D50C2100E0002100EB01
:10427000010AA86E0090B5F870600C2EE4D24FF0E1
:104280000008CDF80480298FA1EB0A00B84200DBBA
:1042900038461FFA80F90420FFF720FB040056D0AF
:1042A000002020606060B8F1000F21D00198046008
:1042B00001941098C0071DD009EB0A0081B20022BA
:1042C0001046FFF7B5FB60600028E8D0FFF753FC0D
:1042D000304486B2049838B160684A46416801EBC0
:1042E0000A005946FCF726F860684068A0601EE0A6
:1042F000A046DDE7002251461046FFF799FB6060BB
:10430000002824D0FFF737FC304486B27FB1012269
:1043100049460320FFF78CFB010013D0C1F804B01D
:10432000761CC4F808B0B6B26068FFF707FC0C2E24
:104330000DD8A4F80C9014216068FFF7C3FC002886
:104340007AD105E06068FFF79BFC0020606073E0B5
:10435000606840682061288BFEF719FC216908809D
:10436000288CFEF714FC216948800098FEF70DFCAC
:104370002169486021690020488220698089FFF70F
:1043800055FB069920F03F000843FEF700FC216929
:1043900088811198A07320698089FFF747FB4FEA55
:1043A0009A01090300F03F0001F5A0410843FEF720
:1043B000EEFB2169CB448881A7EB09000704009834
:1043C0003F0C484400907FF45EAF6F6FEFB300E0A6
:1043D000074638680028FBD1BFB338698089FFF7EA
:1043E00025FBC00705D138698089FFF71FFB8007CF
:1043F00001D5012000E00020B989C84252D03869B7
:104400008089FFF713FB80074CD10698800749D1BC
:10441000B989B8F80C000844298F884242D8B97B82
:1044200098F80E0081423DD10AF114014942D8F8B2
:104430000400FFF747FC70B115F8220F40F0800030
:104440002870B8F1000003D000E028E001F0B3F9D3
:104450004FF0FF30F0E6D8F80400418941B9026816
:104460000021C8F80420761EB6B20160FFF708FCF0
:10447000D8F804107868FFF761FBB989B8F80C0028
:104480004445084480B2B881D8F8001039604146EC
:1044900001D13C4681460420FFF7E8F90BE0C5F85E
:1044A000748001E0C7F800800698800703D0059863
:1044B000401C80B205900698C00705D095F82200F0
:1044C00040F0200085F8220055F8681F0598084440
:1044D0002860E9880598081AE8802E8184B1B9F12E
:1044E000000F0DD0206958B11099890708D4808930
:1044F000FFF79CFA40F00800FEF749FB216988812C
:10450000002099E670B51448446922E0E06F70B16C
:10451000D4F884503DB166690246002321463046F6
:10452000A84710B103E0FFF7ABFB0020E06794F869
:104530002200C1070CD040F0020084F8220020467F
:1045400000F06EFA94F8220020F0030084F82200B4
:10455000E468002CDAD170BD540000202DE9FC473E
:104560000546C04E40680C46B0600088FFF75EFA12
:104570006968C0F3032001EB80007060B0680088B8
:10458000FFF754FAC0F30320800041422846FFF7AA
:1045900099FB002875D12889142872D3B068214668
:1045A0001030FEF7E5FB0028F4D14FF07040FFF724
:1045B0003BFAB168096900EA01044FF06040FFF777
:1045C00033FA84425DD070688089FFF72FFA000BC0
:1045D000800041422846FFF775FB0028DAD1706859
:1045E0000088FFF723FA0146706801804088FFF7D2
:1045F0001DFA0146706841804068FFF715FA0146D0
:1046000070684160F1608068FFF70EFA01467068DB
:1046100081603161C089FFF709FA01467068C18184
:104620008089FFF703FA00F03F0030702989800786
:1046300000D0012008448C4F81B271803B68002279
:104640001C4621E07068B4F820C0B0F80080C44572
:1046500018D1B4F818C04088844513D1B068D4F894
:1046600004C0D0F80C80C4450CD1D4F800C0006957
:10467000844507D11AB1E068D060E3603C602CB19A
:1046800054E0EAE02246E468002CDBD17748046875
:1046900027E07068228C03889A4221D1228B4088BF
:1046A00082421DD1B0686268C3689A4218D12268FC
:1046B0000069824214D1F068626A0844821A002AB2
:1046C00000DD606241B194F8220040F0020084F8FD
:1046D0002200204600F0A4F9204600F0A1F9BCE039
:1046E000E468002CD5D1624F00223868034619E0F7
:1046F00007D0016829B1D6F808C0DCF810C06145C0
:104700000ED1D6F804C0018BBCF802C0614507D1B8
:104710001AB1C168D160C360386000F0D1F89CE084
:104720000246C0680028E3D1002C6FD0DFF8449126
:104730000027C9F800702989A9F80C106968C9E92F
:1047400001517168C9F8101077617770E06F80B11E
:10475000D4F884C0BCF1000F08D0D4F8148002460D
:10476000002321464046E04710B176E0FFF788FA83
:10477000E7672046B46100F07BFBB761401D4DD078
:104780007078010707D5D4F8902032B16FF0050199
:104790006069904701E0C00608D52146324800F024
:1047A00037FB21460220FFF761F837E0B4F86C20B0
:1047B000002532B1D4F880301BB12146606998479A
:1047C00005467069A0B13178090703D5417B41F0F6
:1047D00001014173D4F88450CDB1D4F814C002461D
:1047E000002321466046A847050001D07069E067B4
:1047F0007078800608D5D4F8845065B100231A4635
:1048000021466069A84705462DB107E010E0002564
:10481000FFF736FAECE7204600F002F9D9F8040079
:104820004C46002802D0FFF72BFA6760BDE8FC87F2
:1048300070688089FFF7FAF840070ED47068018825
:104840004088CDE900017188F068B368014403F144
:1048500010020C33306900F052FF2846BDE8FC47D7
:10486000FFF70EBA74000020680000206C000020E2
:1048700064000020042500207CB504460022142199
:104880000120FFF7D5F8050018D0A06D401EFEF7F7
:104890007CF9034600222946204600F025FA06212D
:1048A0000020CDE90001E37A221D21462846FEF7CB
:1048B000D9FB2846BDE87C40FFF7E2B97CBD00008B
:1048C0007CB5374E05463078C10610D57068018832
:1048D0004088CDE900017188F068B368014430690F
:1048E00003F11002401C0C3300F009FF55E0800773
:1048F00053D5687CFFF7ECFA040044D0B06810F19F
:10490000100100D001692160298B218310F10C0F67
:104910003CD0C068606071680888208403202074DF
:10492000F0680246401C6062E062C889A4F85C003E
:10493000A4F85400521E226668696061E869E0616B
:10494000288940F299110840208116480168E160E9
:104950000460204600F004FA208F211DFFF74AFC76
:10496000208700200121CDE90001024601461223E3
:104970002046FFF74FFC05000AD000212046FFF734
:104980005DFA28467CBD4FF0FF307CBD0020C1E7BA
:104990002046BDE87C4000F043B800207CBD00000C
:1049A00074000020680000204020FFF791BA00004A
:1049B000F0B5164C4FF4004E04F11000D4E9057622
:1049C00005684FF4805C6088401C80B26080704550
:1049D00001D3A4F802C03846638803E0018B9942F2
:1049E000F1D0C0680028F9D1314603E0088B984225
:1049F000E9D0C9680029F9D12A4603E0108B984212
:104A0000E1D0D268002AF9D198B2F0BD540000205C
:104A10000249D1E901021044486070475400002067
:104A20002DE9FC470446834800270068A04242D095
:104A3000B4F85C00B4F85210884200D30846D4E9B8
:104A40001D5681460EB903E0064630680028FBD1AA
:104A500094F82200800774D54DB128694068FEF7AC
:104A6000E3FFE16C401AA989014449456AD9002253
:104A700007F114010120FEF7DBFF05001CD094F8BC
:104A8000220020F0030084F82200A06DFEF77DF8DC
:104A900003463A462946204600F026F90621A07A28
:104AA000CDE90001E37A221D21462846FEF7DAFA15
:104AB0002846FFF7E5F8BBE06FF00100BDE8FC8792
:104AC00028698089FEF7B2FFA06F70B194F82210B8
:104AD00048060AD4606F28B1026832B98089228FF3
:104AE000904202D211F0A00F71D028686067207C3C
:104AF00002280FD028698089FEF798FF40F0100047
:104B0000FEF745F82969888194F8220020F0030017
:104B100084F822002146284600F08EF82869406873
:104B2000FEF782FF074628698089FEF77FFFC007EE
:104B300005D128698089FEF779FF800703D5012018
:104B400002E04CE04CE00020A98938440844A16D03
:104B5000091A00D5A06528698089FEF767FFC0079C
:104B600005D128698089FEF761FF800701D5012002
:104B700000E00020A989C8422DD0C5F80080A06FB0
:104B800068B128694068FEF74FFF07463069406802
:104B9000FEF74AFF381A1BD504F1780003E0A56739
:104BA00017E0D8F800008046006850B100694068FE
:104BB000FEF73AFF074628694068FEF735FF381AC6
:104BC000EFD4D8F800002860C8F8005006E015E0DF
:104BD00035602E4602E0284600F0DDFD656F15B316
:104BE00028694068FEF720FFE16C4FF00008401A8A
:104BF000A989014449457FF663AF00E09DB194F86F
:104C00009C0080B928694068FEF70EFFE16C401AED
:104C1000A9890844B4F85C10884204D90120C4F87A
:104C2000988084F89C0014F8220F20F080002070F7
:104C3000002043E78C0000207CB505460C46486AFE
:104C4000FDF7A3FF29698860608DFDF7A0FF296942
:104C5000C881618D606A0844E0622E69A87B1436C1
:104C6000C00703D01E48FDF790FF30600CB12068EC
:104C700040B9201DFEF74AFC002830D0011D07D0A6
:104C800040682060B4F936000026401C02D002E0E3
:104C90000020F6E7E686E06B38B912480068E0636A
:104CA00028694068FEF7C0FE20646968288A8A88FF
:104CB000801A4A89121A4A8169680A89101A088179
:104CC00069682869221D4860286906210682A07A41
:104CD000CDE90001E37A21466868FEF7C3F97CBD9F
:104CE000B40504025C0000202DE9F04105461F4692
:104CF0001646008B4C68FDF74AFF2080288CFDF794
:104D000046FF60806760686AFDF73FFFA060A0898A
:104D1000FEF78CFE20F03F0040F01000FDF737FF5B
:104D2000A081688DFDF733FFE08100276782A089AD
:104D3000FEF77CFEF11706EB91718910090300F074
:104D40003F0001F5A041084380B2FDF720FFA0819C
:104D50002782698D686A0844E8622046BDE8F081D0
:104D600070B51E4E0546706800F114048089FEF788
:104D70005DFE0521B1EB103F1ED270688089FEF701
:104D800055FE6FF0040101EB1030090C01EA8003BD
:104D9000002140F2B4560DE0605C00280CD00128E0
:104DA0000BD0022804EB010009D04078002803D082
:104DB000084481B29942EFD370BD491C0CE042789F
:104DC000042AF9D1091D9942F6D8408842BAB24264
:104DD00000D802B932462A8789B2EBE77400002076
:104DE00070B50446007C002811D00A280FD0012895
:104DF0000DD0E06F002510B1FEF742FFE567606F50
:104E000000F0D9FCA06F00F0D6FC6567A56770BD07
:104E100070B50C4601460068A04202D1C068086027
:104E20000CE0124907E0C06828B1A04203D1C9696B
:104E3000E068C86002E0C8610028F4D1002520467F
:104E4000E560FFF7CDFF207C0A280CD001280AD0AE
:104E500094F82200C10706D040F0020084F8220036
:104E60002046FFF7DDFD257470BD000054000020D2
:104E70002DE9FC5FCA4E0446307841071DD5207CE1
:104E8000022815D0606AF1680A1A15D4228D1044E0
:104E9000081A002810DC707840F00800707014F8D0
:104EA000220F20F0010020706FF00500BDE8FC9F8C
:104EB000A06D31698842EED06FE180070ED5207C6D
:104EC00002280BD0032809D094F8220040F00200F9
:104ED00084F822002046FFF7A3FD5EE1B1484FF0C1
:104EE000000A0068206384F89DA02046FFF738FF81
:104EF000207CDFF8B482AD4FAD4D801E4FF0070B24
:104F00004FF00A090828D7D2DFE800F00464B4B8EB
:104F1000FBB4F0EF3078C106CED580074ED5A06F38
:104F200000694068FEF780FD3169401C884242D12B
:104F3000B4F86E00401CA4F86E00F0680246401CF5
:104F40006062E164E0627068521E211DC089A4F8AD
:104F50005C00042022662074208FFFF74BF900EBE1
:104F600080014FF6FF72208702EA4101A4F8541035
:104F7000B4F85210012900D14000A4F85200B4F84E
:104F80007000401EA4F87000A06F0168A16771B1A5
:104F9000A4F836A084F84AA000F0FDFBD4F88830CD
:104FA000002B91D000222146606998478CE74FF092
:104FB000FF31E186F0E73078C0068ED57068018851
:104FC0004088CDE900017188F068B36801441A4651
:104FD00030693FE03078C10641D5E16C3069411A53
:104FE00001292DD4A16D411A002929DC0420207447
:104FF000E3695BB1002221466069984730B1012125
:105000002046FEF71BFF6FF004004FE7B4F8525044
:10501000204600F0CFF8208F012D00D14000A4F8E9
:105020005200707880060AD594F8220040F0020001
:1050300084F822002046FFF7F3FC84F810B0ACE0BF
:1050400071680A884988CDE900127288F168B368EE
:1050500011441A4610320C3300F051FB9DE08007DA
:1050600007D5606AF168401E884202D1204600F0F0
:1050700005FB92E0204600F09DF8D2E7204600F0C4
:1050800099F87078800630784FEAC06030D50028F3
:1050900020DAA06D316988421CD194F8220040F0DA
:1050A000020084F822002046FFF7BAFC2046FFF7F2
:1050B00097FE3868A04202D1C068386057E0286087
:1050C000E0B3C0680028FAD0A042F8D12968E068AF
:1050D000C8604CE094F8220040F0020084F82200FE
:1050E0002046FFF79DFC082009E048E027E008E0A3
:1050F000002852DAA06D316988424ED10620207412
:105100004BE0204600F056F87078800645D594F8BC
:10511000220040F0020084F822002046FFF780FCC5
:105120002046FFF75DFE3868A042C5D0286028B150
:10513000C0680028FAD0A042F8D1C7E717E020469F
:1051400000F038F83078C00627D5A06D3169884264
:1051500023D12046FFF744FE3868A042ACD0286037
:1051600028B1C0680028FAD0A042F8D1AEE784F890
:105170001090D8F80010E160C8F800400DE020461B
:1051800000F018F83078C00607D5A06D3169884264
:1051900003D1707840F010007070002086E60000A7
:1051A000740000205C0000206C00002068000020DB
:1051B000700000202DE9F047FF4F04464FF0000932
:1051C00038784E46C0067CD5B4F85C50616E226ECD
:1051D000F8686B18B2EB000C0BD4824202D13A692A
:1051E0008A1A06D43A69914210D17968C989A942CC
:1051F0000CD97968C989A4F85C10206638696066A2
:1052000021B194F89C0008B184F89C60E16C386985
:10521000814246D1A4F86C60B4F85C10606E08441A
:10522000984233D194F85000401CC0B284F850002A
:1052300003282BD3A06F002828D094F82200400721
:1052400025D4204600F01AFAB4F85200B4F85C10E5
:10525000884201D9480800E04008A4F8540081B20F
:10526000208FB1EB400F05D24FF6FF7101EA4001EC
:10527000A4F8541089B200EB40000844A4F852008E
:1052800094F8220040F0040084F8220098E0B4F87A
:105290005200218F014489B2814201D9A4F85210F1
:1052A0008EE0411A012978D4A26D821A002A74DC9A
:1052B00094F82220530709D522F0040284F8222012
:1052C00000E0C2E0B4F85420A4F8522084F84A6008
:1052D000B4F84620B4F9443002EBE302A4F84820C5
:1052E000A4F86C10B4F86E201144A4F86E1084F881
:1052F0005060E064207C042825D3B4F85200B4F850
:1053000054108842218F04D2014489B2814207D8C7
:1053100019E0494391FBF0F1014489B2884212D26D
:10532000A4F852100FE02868A0676868FEF723FC15
:105330006868FEF720FCB4F87010081AA4F8700032
:10534000284600F028FAA06F18B300694068FEF7FD
:105350006BFB0546A06F00698089FEF767FBC007FD
:1053600006D1A06F00698089FEF760FB800701D538
:10537000012000E000202844A56FA989084439696C
:10538000401A0028CFDD25B1E68684F8346017E0A6
:1053900003E04FF0FF30E086F7E7A4F86C600FE021
:1053A000286860676868FEF7E6FB6868FEF7E3FB5D
:1053B000B4F87010081AA4F87000284600F0EBF951
:1053C000606F00B300694068FEF72EFB0546606F12
:1053D00000698089FEF72AFBC00706D1606F00696B
:1053E0008089FEF723FB800701D5012000E0002023
:1053F0002844656FA98901443869411A03D4A16D15
:10540000401A0028CCDDE06BF8B1216C3A69891AAA
:105410001BD56A490988081AB4F94410A0EBE100C9
:1054200000B2014409B2A4F84410002801DA404255
:1054300000B2B4F94620A0EBA2001044A4F8460044
:1054400000EBE100A4F84800E6637B88002B7DD0E8
:10545000616AFA68DFF86881881A012829D4134440
:10546000CB1A5B1C002B24DCD8F8045069898142DC
:105470000ADA2989091A8AB203E02A816E812D6825
:10548000401A69898142F8DB404201B22846FEF7A2
:1054900019FC6868C8F80800BB89606AB8F80C2075
:1054A000C31AD21AA8F80C20F860D8F81010486077
:1054B0000AE0501A0CD594F8220040F0020084F85B
:1054C00022002046FFF7ACFA606AF968081A79D41E
:1054D000218D606A4218F9688A1A521C002A71DC10
:1054E00088426FD1D8F810004FF0010945468089F5
:1054F000FEF79CFAC00705D128698089FEF796FA65
:10550000800701D5012000E00020A989B8460844A1
:1055100080B27880218D81423AD228698089FEF755
:1055200085FAC00710D028698089FEF77FFA20F03D
:105530003F0728698089FEF779FA00F03E0038437A
:10554000FDF725FB29698881208D00E05CE0A881BA
:1055500028698089FEF76AFA800702D5A889401E6B
:10556000A881A9896868FEF7DDFB28698089FEF7B4
:105570005DFAC00705D128698089FEF757FA8007D0
:1055800001D5012000E00020A9890844A8F8020004
:10559000B8F80200D8F80C10474601446162218D2A
:1055A000081A2085204600F037FA6868018909B199
:1055B00078616E60286906E0740000205C000020BD
:1055C0000425002014E08089FEF730FAC00703D0DC
:1055D000787840F02000787094F82200C10702D05B
:1055E00020F0010006E040F0010084F8220008E00D
:1055F00094F8220040F0020084F822002046FFF7D1
:105600000FFA4846BDE8F087606AF9680A1AEFD4D5
:10561000228D1044081A401C0028E9DCF1E7C0F88C
:105620008410704710B5100002D0FEF729FB00E08F
:105630000BB1002010BDBDE810400846FEF728BDA4
:1056400010B50446008D084480B240F668312085CC
:10565000884200D92185204600F0DEF940F2DA21A7
:1056600088420ADB94F8220040F0020084F822000D
:105670002046BDE81040FFF7D3B910BD2DE9F04139
:10568000866F0546002E21D0306805F17404A867A6
:1056900000E02468206850B100694068FEF7C4F952
:1056A000074630694068FEF7BFF9381AF1D4206820
:1056B0003060266095F84A00401C85F84A000020BA
:1056C000E8632846BDE8F041FFF7AAB9BDE8F081DC
:1056D000816F002912D000E011460A68002AFBD130
:1056E000426F0A60816F41670021816790F84A200C
:1056F000521C80F84A20C163FFF792B970472DE928
:10570000FC5F9046DDE90C9A0E4683461F46002258
:1057100014210120FEF78CF905003AD048466C6848
:10572000FDF735FA20805046FDF731FA6080584683
:10573000FDF72BFA60603046FDF727FAA060A089DC
:10574000FEF774F920F03F0040F01400FDF71FFA57
:10575000A08140F66830FDF71AFAE08100266682E3
:10576000A089FEF763F900F03F0040F4A040FDF788
:105770000EFAA08126820620CDE90060FF233A467A
:1057800041462846FDF76EFC2846BDE8FC5FFEF763
:1057900077BABDE8FC9F70B504004FF0000508D053
:1057A000606810B1FEF76CFA054621460420FEF74A
:1057B0005DF8284670BD70B5002405E00568FFF768
:1057C000EAFF2044C4B228460028F7D1204670BD25
:1057D0001CB500240122CDE900240B4622462146B7
:1057E000FEF718FD1CBD00002DE9F0477E4E4FF47A
:1057F000FA79B068401C0027B060B8467469D2E0FE
:10580000217C022903D194F84A0006281AD094F882
:105810004A200C2A18D094F89C00B8B1D4F89810FB
:10582000724A491CC4F89810825C914243D3C4F870
:105830009880072802D2401C84F89C00204600F083
:1058400017F938E001253FE0012534E0B4F93600CE
:10585000002801DB401CE086A06F60B3B4F936007D
:10586000B4F94830984226DB02290AD0B4F8460041
:10587000B4F9441000EBE1005D49895C8840A4F86C
:105880004800A4F83680B4F85200B4F85C1088429E
:1058900000D308464108A4F85410208F814205D255
:1058A0004FF6FF7101EA4001A4F85410A4F8520029
:1058B0002046FFF70DFF207C062805D1206BB1683C
:1058C000081A282800D96D1C207A00072AD5207CC8
:1058D000042801D0072825D14649D4F89400D6F8E9
:1058E00008C00144B1FBF9F3216BACEB01018B4221
:1058F00004D201212046FEF7A1FA13E094F89D306E
:1059000042F29F4C03FB0CF300EBC300B0FBF9F039
:10591000884207D22046FEF7AFFF94F89D00401C56
:1059200084F89D00207C032802D0092807D00BE0D2
:10593000206BB168081A282806D96D1C04E0206B7A
:10594000B168081AF028F8D8ADB12046FFF748FA38
:10595000E0680FB1F86000E07061D4F890201AB1EF
:105960006FF004016069904721460220E568FDF769
:105970007DFF2C4617E094F83400401CC0B284F838
:10598000340094F8351088420BD384F83480D4F86E
:105990008C201AB121466069904710B92046FFF764
:1059A0003FF82746E4684FF00005002C7FF428AF4D
:1059B000B46915E0206BB168081AF0280ED92046AA
:1059C000FFF70EFAE0680DB1E86000E0B061214633
:1059D0000220E768FDF74AFF3C4601E02546E468FF
:1059E000002CE7D1BDE8F08754000020735E00086A
:1059F0007B5E0008B84C0A0010B5FEF783FD054930
:105A00000878401C0870C00703D0BDE81040FFF7BD
:105A1000EBBE10BD5400002030B5048D426A058FE6
:105A2000C16A13190D445D1B02D44485581A30BD58
:105A3000531A002B01DD002100E0891A4185002066
:105A400030BD1CB5047C042C08D0072C06D0022CD9
:105A500004D0032C02D06FF007001CBD32B100242B
:105A6000CDE900342346FEF7D5FB1CBD00201CBD4C
:105A70007CB5846F054614B96C6F002C20D00022D1
:105A800015210120FDF7D4FF060019D0206900225E
:105A9000314643682846FFF727F9A06871682A1D38
:105AA0000078087506210020CDE90001EB7A29462F
:105AB0003046FDF7D7FA3046BDE87C40FEF7E0B847
:105AC0007CBD0000F0B5154D00242B6803E0984222
:105AD00000D10124DB68002BF9D101B10968016014
